{
  "contractName": "MarketPoke",
  "abi": [
    {
      "inputs": [],
      "stateMutability": "nonpayable",
      "type": "constructor"
    },
    {
      "anonymous": false,
      "inputs": [
        {
          "indexed": false,
          "internalType": "uint256",
          "name": "itemId",
          "type": "uint256"
        },
        {
          "indexed": false,
          "internalType": "address",
          "name": "nftContract",
          "type": "address"
        },
        {
          "indexed": false,
          "internalType": "uint256",
          "name": "tokenId",
          "type": "uint256"
        },
        {
          "indexed": false,
          "internalType": "address",
          "name": "seller",
          "type": "address"
        },
        {
          "indexed": false,
          "internalType": "address",
          "name": "owner",
          "type": "address"
        },
        {
          "indexed": false,
          "internalType": "uint256",
          "name": "price",
          "type": "uint256"
        },
        {
          "indexed": false,
          "internalType": "bool",
          "name": "sold",
          "type": "bool"
        }
      ],
      "name": "ItemCreated",
      "type": "event"
    },
    {
      "inputs": [],
      "name": "getListingPrice",
      "outputs": [
        {
          "internalType": "uint256",
          "name": "",
          "type": "uint256"
        }
      ],
      "stateMutability": "view",
      "type": "function",
      "constant": true
    },
    {
      "inputs": [
        {
          "internalType": "address",
          "name": "nftContract",
          "type": "address"
        },
        {
          "internalType": "uint256",
          "name": "tokenId",
          "type": "uint256"
        },
        {
          "internalType": "uint256",
          "name": "price",
          "type": "uint256"
        }
      ],
      "name": "create",
      "outputs": [],
      "stateMutability": "payable",
      "type": "function",
      "payable": true
    },
    {
      "inputs": [
        {
          "internalType": "address",
          "name": "nftContract",
          "type": "address"
        },
        {
          "internalType": "uint256",
          "name": "itemId",
          "type": "uint256"
        }
      ],
      "name": "buyNFT",
      "outputs": [],
      "stateMutability": "payable",
      "type": "function",
      "payable": true
    },
    {
      "inputs": [],
      "name": "getUnsoldItems",
      "outputs": [
        {
          "components": [
            {
              "internalType": "uint256",
              "name": "itemId",
              "type": "uint256"
            },
            {
              "internalType": "address",
              "name": "nftContract",
              "type": "address"
            },
            {
              "internalType": "uint256",
              "name": "tokenId",
              "type": "uint256"
            },
            {
              "internalType": "address payable",
              "name": "seller",
              "type": "address"
            },
            {
              "internalType": "address payable",
              "name": "owner",
              "type": "address"
            },
            {
              "internalType": "uint256",
              "name": "price",
              "type": "uint256"
            },
            {
              "internalType": "bool",
              "name": "sold",
              "type": "bool"
            }
          ],
          "internalType": "struct MarketPoke.Item[]",
          "name": "",
          "type": "tuple[]"
        }
      ],
      "stateMutability": "view",
      "type": "function",
      "constant": true
    }
  ],
  "bytecode": "0x60806040526608e1bc9bf0400060045534801561001b57600080fd5b50600160008190555033600360006101000a81548173ffffffffffffffffffffffffffffffffffffffff021916908373ffffffffffffffffffffffffffffffffffffffff1602179055506111a8806100746000396000f3fe60806040526004361061003f5760003560e01c806312e85585146100445780635165da301461006f5780639b8bc1271461008b578063a82ba76f146100b6575b600080fd5b34801561005057600080fd5b506100596100d2565b6040516100669190610a48565b60405180910390f35b61008960048036038101906100849190610af2565b6100dc565b005b34801561009757600080fd5b506100a06103e7565b6040516100ad9190610cdc565b60405180910390f35b6100d060048036038101906100cb9190610cfe565b6106be565b005b6000600454905090565b6100e4610931565b60008111610127576040517f08c379a000000000000000000000000000000000000000000000000000000000815260040161011e90610d9b565b60405180910390fd5b600454341461016b576040517f08c379a000000000000000000000000000000000000000000000000000000000815260040161016290610e2d565b60405180910390fd5b6101756001610980565b60006101816001610996565b90506040518060e001604052808281526020018573ffffffffffffffffffffffffffffffffffffffff1681526020018481526020013373ffffffffffffffffffffffffffffffffffffffff168152602001600073ffffffffffffffffffffffffffffffffffffffff16815260200183815260200160001515815250600560008381526020019081526020016000206000820151816000015560208201518160010160006101000a81548173ffffffffffffffffffffffffffffffffffffffff021916908373ffffffffffffffffffffffffffffffffffffffff1602179055506040820151816002015560608201518160030160006101000a81548173ffffffffffffffffffffffffffffffffffffffff021916908373ffffffffffffffffffffffffffffffffffffffff16021790555060808201518160040160006101000a81548173ffffffffffffffffffffffffffffffffffffffff021916908373ffffffffffffffffffffffffffffffffffffffff16021790555060a0820151816005015560c08201518160060160006101000a81548160ff0219169083151502179055509050507feafffdc459cdbf1037f95d7034bacc7d5709b281c19fc17291040a82d81d1eb48185853360008760006040516103629796959493929190610e6b565b60405180910390a18373ffffffffffffffffffffffffffffffffffffffff166323b872dd3330866040518463ffffffff1660e01b81526004016103a793929190610eda565b600060405180830381600087803b1580156103c157600080fd5b505af11580156103d5573d6000803e3d6000fd5b50505050506103e26109a4565b505050565b606060006103f56001610996565b905060006104036002610996565b61040d6001610996565b6104179190610f40565b90506000808267ffffffffffffffff81111561043657610435610f74565b5b60405190808252806020026020018201604052801561046f57816020015b61045c6109ae565b8152602001906001900390816104545790505b5090506000600190505b6001856104869190610fa3565b8110156106b357600073ffffffffffffffffffffffffffffffffffffffff166005600083815260200190815260200160002060040160009054906101000a900473ffffffffffffffffffffffffffffffffffffffff1673ffffffffffffffffffffffffffffffffffffffff16036106a0576000600560008381526020019081526020016000206000015490506000600560008381526020019081526020016000209050806040518060e0016040529081600082015481526020016001820160009054906101000a900473ffffffffffffffffffffffffffffffffffffffff1673ffffffffffffffffffffffffffffffffffffffff1673ffffffffffffffffffffffffffffffffffffffff168152602001600282015481526020016003820160009054906101000a900473ffffffffffffffffffffffffffffffffffffffff1673ffffffffffffffffffffffffffffffffffffffff1673ffffffffffffffffffffffffffffffffffffffff1681526020016004820160009054906101000a900473ffffffffffffffffffffffffffffffffffffffff1673ffffffffffffffffffffffffffffffffffffffff1673ffffffffffffffffffffffffffffffffffffffff168152602001600582015481526020016006820160009054906101000a900460ff16151515158152505084868151811061068357610682610fd7565b5b602002602001018190525060018561069b9190610fa3565b945050505b80806106ab90611006565b915050610479565b508094505050505090565b6106c6610931565b60006005600083815260200190815260200160002060050154905060006005600084815260200190815260200160002060020154905081341461073e576040517f08c379a0000000000000000000000000000000000000000000000000000000008152600401610735906110e6565b60405180910390fd5b6005600084815260200190815260200160002060030160009054906101000a900473ffffffffffffffffffffffffffffffffffffffff1673ffffffffffffffffffffffffffffffffffffffff166108fc349081150290604051600060405180830381858888f193505050501580156107ba573d6000803e3d6000fd5b508373ffffffffffffffffffffffffffffffffffffffff166323b872dd3033846040518463ffffffff1660e01b81526004016107f893929190610eda565b600060405180830381600087803b15801561081257600080fd5b505af1158015610826573d6000803e3d6000fd5b50505050336005600085815260200190815260200160002060040160006101000a81548173ffffffffffffffffffffffffffffffffffffffff021916908373ffffffffffffffffffffffffffffffffffffffff16021790555060016005600085815260200190815260200160002060060160006101000a81548160ff0219169083151502179055506108b86002610980565b600360009054906101000a900473ffffffffffffffffffffffffffffffffffffffff1673ffffffffffffffffffffffffffffffffffffffff166108fc6004549081150290604051600060405180830381858888f19350505050158015610922573d6000803e3d6000fd5b50505061092d6109a4565b5050565b600260005403610976576040517f08c379a000000000000000000000000000000000000000000000000000000000815260040161096d90611152565b60405180910390fd5b6002600081905550565b6001816000016000828254019250508190555050565b600081600001549050919050565b6001600081905550565b6040518060e0016040528060008152602001600073ffffffffffffffffffffffffffffffffffffffff16815260200160008152602001600073ffffffffffffffffffffffffffffffffffffffff168152602001600073ffffffffffffffffffffffffffffffffffffffff168152602001600081526020016000151581525090565b6000819050919050565b610a4281610a2f565b82525050565b6000602082019050610a5d6000830184610a39565b92915050565b600080fd5b600073ffffffffffffffffffffffffffffffffffffffff82169050919050565b6000610a9382610a68565b9050919050565b610aa381610a88565b8114610aae57600080fd5b50565b600081359050610ac081610a9a565b92915050565b610acf81610a2f565b8114610ada57600080fd5b50565b600081359050610aec81610ac6565b92915050565b600080600060608486031215610b0b57610b0a610a63565b5b6000610b1986828701610ab1565b9350506020610b2a86828701610add565b9250506040610b3b86828701610add565b9150509250925092565b600081519050919050565b600082825260208201905092915050565b6000819050602082019050919050565b610b7a81610a2f565b82525050565b610b8981610a88565b82525050565b6000610b9a82610a68565b9050919050565b610baa81610b8f565b82525050565b60008115159050919050565b610bc581610bb0565b82525050565b60e082016000820151610be16000850182610b71565b506020820151610bf46020850182610b80565b506040820151610c076040850182610b71565b506060820151610c1a6060850182610ba1565b506080820151610c2d6080850182610ba1565b5060a0820151610c4060a0850182610b71565b5060c0820151610c5360c0850182610bbc565b50505050565b6000610c658383610bcb565b60e08301905092915050565b6000602082019050919050565b6000610c8982610b45565b610c938185610b50565b9350610c9e83610b61565b8060005b83811015610ccf578151610cb68882610c59565b9750610cc183610c71565b925050600181019050610ca2565b5085935050505092915050565b60006020820190508181036000830152610cf68184610c7e565b905092915050565b60008060408385031215610d1557610d14610a63565b5b6000610d2385828601610ab1565b9250506020610d3485828601610add565b9150509250929050565b600082825260208201905092915050565b7f5072696365206d757374206265206174206c656173742031207765692e000000600082015250565b6000610d85601d83610d3e565b9150610d9082610d4f565b602082019050919050565b60006020820190508181036000830152610db481610d78565b9050919050565b7f5072696365206d75737420626520657175616c20746f206c697374696e67207060008201527f726963652e000000000000000000000000000000000000000000000000000000602082015250565b6000610e17602583610d3e565b9150610e2282610dbb565b604082019050919050565b60006020820190508181036000830152610e4681610e0a565b9050919050565b610e5681610a88565b82525050565b610e6581610bb0565b82525050565b600060e082019050610e80600083018a610a39565b610e8d6020830189610e4d565b610e9a6040830188610a39565b610ea76060830187610e4d565b610eb46080830186610e4d565b610ec160a0830185610a39565b610ece60c0830184610e5c565b98975050505050505050565b6000606082019050610eef6000830186610e4d565b610efc6020830185610e4d565b610f096040830184610a39565b949350505050565b7f4e487b7100000000000000000000000000000000000000000000000000000000600052601160045260246000fd5b6000610f4b82610a2f565b9150610f5683610a2f565b9250828203905081811115610f6e57610f6d610f11565b5b92915050565b7f4e487b7100000000000000000000000000000000000000000000000000000000600052604160045260246000fd5b6000610fae82610a2f565b9150610fb983610a2f565b9250828201905080821115610fd157610fd0610f11565b5b92915050565b7f4e487b7100000000000000000000000000000000000000000000000000000000600052603260045260246000fd5b600061101182610a2f565b91507fffffffffffffffffffffffffffffffffffffffffffffffffffffffffffffffff820361104357611042610f11565b5b600182019050919050565b7f506c65617365207375626d6974207468652061736b696e67207072696365206960008201527f6e206f7264657220746f20636f6d706c6574652074686520707572636861736560208201527f2e00000000000000000000000000000000000000000000000000000000000000604082015250565b60006110d0604183610d3e565b91506110db8261104e565b606082019050919050565b600060208201905081810360008301526110ff816110c3565b9050919050565b7f5265656e7472616e637947756172643a207265656e7472616e742063616c6c00600082015250565b600061113c601f83610d3e565b915061114782611106565b602082019050919050565b6000602082019050818103600083015261116b8161112f565b905091905056fea2646970667358221220af126155672fa047d0efff0a7b50340e1f1b4d6b89ef20b38398cf90a534041f64736f6c63430008130033",
  "immutableReferences": {},
  "source": "// SPDX-License-Identifier: MIT\r\npragma solidity ^0.8.11;\r\n\r\nimport \"@openzeppelin/contracts/token/ERC721/ERC721.sol\";\r\nimport \"@openzeppelin/contracts/utils/Counters.sol\";\r\nimport \"@openzeppelin/contracts/security/ReentrancyGuard.sol\";\r\n\r\ncontract MarketPoke is ReentrancyGuard {\r\n\r\n    using Counters for Counters.Counter;\r\n    Counters.Counter private _itemIds;\r\n    Counters.Counter private _itemsSold;\r\n\r\n    address payable owner;\r\n    uint256 listingPrice = 0.0025 ether;\r\n\r\n    event ItemCreated(uint256 itemId, address nftContract, uint256 tokenId, \r\n        address seller, address owner, uint256 price, bool sold);\r\n\r\n    constructor() {\r\n        owner = payable(msg.sender);\r\n    }\r\n\r\n    struct Item {\r\n        uint256 itemId;\r\n        address nftContract;\r\n        uint256 tokenId;\r\n        address payable seller;\r\n        address payable owner;\r\n        uint256 price;\r\n        bool sold;\r\n    }\r\n\r\n    mapping(uint256 => Item) private _idToItem;\r\n\r\n    function getListingPrice() public view returns (uint256) {\r\n        return listingPrice;\r\n    }\r\n\r\n    function create(address nftContract, uint256 tokenId, uint256 price)\r\n            public payable nonReentrant {\r\n        // Verifico se il prezzo specificato  maggiore di 0 wei\r\n        // e inoltre verifico che l'utente abbia inviato l'importo della tassa di \r\n        // inserzione corretto\r\n        require(price > 0, \"Price must be at least 1 wei.\");\r\n        require(msg.value == listingPrice, \"Price must be equal to listing price.\");\r\n\r\n        _itemIds.increment();\r\n        uint256 itemId = _itemIds.current();\r\n        // Creo un nuovo item, che rappresenta l'NFT che l'utente sta mettendo in vendita.\r\n        _idToItem[itemId] = Item(\r\n            itemId,\r\n            nftContract,\r\n            tokenId,\r\n            payable(msg.sender),\r\n            payable(address(0)),\r\n            price,\r\n            false\r\n        );\r\n        // Emetto un evento per notificare che l'elemento  stato creato e messo in vendita\r\n        emit ItemCreated(itemId, nftContract, tokenId, msg.sender, address(0), price, false);\r\n\r\n        // Trasferisco l'NFT dal creatore(proprietario) al contratto del mercato\r\n        IERC721(nftContract).transferFrom(msg.sender, address(this), tokenId);\r\n \r\n    }\r\n\r\n    function buyNFT(address nftContract, uint256 itemId)\r\n            public payable nonReentrant {\r\n\r\n        uint price = _idToItem[itemId].price;\r\n        uint tokenId = _idToItem[itemId].tokenId;\r\n        require(msg.value == price, \"Please submit the asking price in order to complete the purchase.\");\r\n        // Trasferisce l'importo pagato dall'acquirente al venditore del NFT.\r\n        _idToItem[itemId].seller.transfer(msg.value);\r\n        // L'NFT viene trasferito dal contratto al mittente della transazione, cio l'acquirente\r\n        IERC721(nftContract).transferFrom(address(this), msg.sender, tokenId);\r\n        // Aggiorna l'NFT con il nuovo proprietario, settandolo come venduto e incrementando il contatore degli\r\n        // nft venduti\r\n        _idToItem[itemId].owner = payable(msg.sender);\r\n        _idToItem[itemId].sold = true;\r\n        _itemsSold.increment();\r\n        // Trasferisce l'importo della tassa di inserzione dal contratto al proprietario del contratto\r\n        payable(owner).transfer(listingPrice);\r\n    }\r\n    // Funzione che restituisce i token non venduti\r\n    function getUnsoldItems() public view returns (Item[] memory) {\r\n        // Contatori che rispettivamentie restituiscono il numero totale di token, il numero totale di\r\n        // token non venduti e inizializza un altro contatore\r\n        uint itemCount = _itemIds.current();\r\n        uint unsoldItemCount = _itemIds.current() - _itemsSold.current();\r\n        uint currentIndex = 0;\r\n        // Creo un array di items inizialmente vuoto e grande quanti sono gli items non venduti\r\n        Item[] memory items = new Item[](unsoldItemCount);\r\n        // Attraversa tutti gli elementi fino in quel momento generati.\r\n        for (uint i = 1; i < itemCount + 1; i++) {\r\n            // Controllo se l'elemento i ha indirizzo zero, ovvero se non  stato venduto\r\n            if (_idToItem[i].owner == address(0)) {\r\n                // Ottengo il suo identificativo\r\n                uint currentId = _idToItem[i].itemId;\r\n                // Ottengo il riferimento diretto all'oggetto di storage effettivo nel contratto associato all'identificativo\r\n                Item storage currentItem = _idToItem[currentId];\r\n                // L'elemento corrente viene inserito nell'array items all'indice corrente\r\n                items[currentIndex] = currentItem;\r\n                currentIndex = currentIndex + 1;\r\n            }\r\n        }\r\n        return items;\r\n    }\r\n}",
  "sourcePath": "C:\\Users\\vince\\Desktop\\Magistrale\\Sicurezza Di Dati\\PokeNFTVerse\\contracts\\MarketPoke.sol",
  "compiler": {
    "name": "solc",
    "version": "0.8.19+commit.7dd6d404.Emscripten.clang"
  },
  "schemaVersion": "3.4.13",
  "updatedAt": "2023-11-12T19:21:54.247Z",
  "networkType": "ethereum",
  "devdoc": {
    "kind": "dev",
    "methods": {},
    "version": 1
  },
  "userdoc": {
    "kind": "user",
    "methods": {},
    "version": 1
  }
}