{
  "contractName": "PokeNFT",
  "abi": [
    {
      "inputs": [],
      "stateMutability": "nonpayable",
      "type": "constructor"
    },
    {
      "anonymous": false,
      "inputs": [
        {
          "indexed": true,
          "internalType": "address",
          "name": "owner",
          "type": "address"
        },
        {
          "indexed": true,
          "internalType": "address",
          "name": "approved",
          "type": "address"
        },
        {
          "indexed": true,
          "internalType": "uint256",
          "name": "tokenId",
          "type": "uint256"
        }
      ],
      "name": "Approval",
      "type": "event"
    },
    {
      "anonymous": false,
      "inputs": [
        {
          "indexed": true,
          "internalType": "address",
          "name": "owner",
          "type": "address"
        },
        {
          "indexed": true,
          "internalType": "address",
          "name": "operator",
          "type": "address"
        },
        {
          "indexed": false,
          "internalType": "bool",
          "name": "approved",
          "type": "bool"
        }
      ],
      "name": "ApprovalForAll",
      "type": "event"
    },
    {
      "anonymous": false,
      "inputs": [
        {
          "indexed": false,
          "internalType": "uint256",
          "name": "_fromTokenId",
          "type": "uint256"
        },
        {
          "indexed": false,
          "internalType": "uint256",
          "name": "_toTokenId",
          "type": "uint256"
        }
      ],
      "name": "BatchMetadataUpdate",
      "type": "event"
    },
    {
      "anonymous": false,
      "inputs": [
        {
          "indexed": false,
          "internalType": "uint256",
          "name": "_tokenId",
          "type": "uint256"
        }
      ],
      "name": "MetadataUpdate",
      "type": "event"
    },
    {
      "anonymous": false,
      "inputs": [
        {
          "indexed": false,
          "internalType": "string",
          "name": "png",
          "type": "string"
        },
        {
          "indexed": false,
          "internalType": "string",
          "name": "tokenURI",
          "type": "string"
        },
        {
          "indexed": false,
          "internalType": "uint256",
          "name": "tokenId",
          "type": "uint256"
        }
      ],
      "name": "TokenCreated",
      "type": "event"
    },
    {
      "anonymous": false,
      "inputs": [
        {
          "indexed": true,
          "internalType": "address",
          "name": "from",
          "type": "address"
        },
        {
          "indexed": true,
          "internalType": "address",
          "name": "to",
          "type": "address"
        },
        {
          "indexed": true,
          "internalType": "uint256",
          "name": "tokenId",
          "type": "uint256"
        }
      ],
      "name": "Transfer",
      "type": "event"
    },
    {
      "inputs": [
        {
          "internalType": "address",
          "name": "to",
          "type": "address"
        },
        {
          "internalType": "uint256",
          "name": "tokenId",
          "type": "uint256"
        }
      ],
      "name": "approve",
      "outputs": [],
      "stateMutability": "nonpayable",
      "type": "function"
    },
    {
      "inputs": [
        {
          "internalType": "address",
          "name": "owner",
          "type": "address"
        }
      ],
      "name": "balanceOf",
      "outputs": [
        {
          "internalType": "uint256",
          "name": "",
          "type": "uint256"
        }
      ],
      "stateMutability": "view",
      "type": "function",
      "constant": true
    },
    {
      "inputs": [
        {
          "internalType": "uint256",
          "name": "tokenId",
          "type": "uint256"
        }
      ],
      "name": "getApproved",
      "outputs": [
        {
          "internalType": "address",
          "name": "",
          "type": "address"
        }
      ],
      "stateMutability": "view",
      "type": "function",
      "constant": true
    },
    {
      "inputs": [
        {
          "internalType": "address",
          "name": "owner",
          "type": "address"
        },
        {
          "internalType": "address",
          "name": "operator",
          "type": "address"
        }
      ],
      "name": "isApprovedForAll",
      "outputs": [
        {
          "internalType": "bool",
          "name": "",
          "type": "bool"
        }
      ],
      "stateMutability": "view",
      "type": "function",
      "constant": true
    },
    {
      "inputs": [],
      "name": "name",
      "outputs": [
        {
          "internalType": "string",
          "name": "",
          "type": "string"
        }
      ],
      "stateMutability": "view",
      "type": "function",
      "constant": true
    },
    {
      "inputs": [
        {
          "internalType": "uint256",
          "name": "tokenId",
          "type": "uint256"
        }
      ],
      "name": "ownerOf",
      "outputs": [
        {
          "internalType": "address",
          "name": "",
          "type": "address"
        }
      ],
      "stateMutability": "view",
      "type": "function",
      "constant": true
    },
    {
      "inputs": [
        {
          "internalType": "address",
          "name": "from",
          "type": "address"
        },
        {
          "internalType": "address",
          "name": "to",
          "type": "address"
        },
        {
          "internalType": "uint256",
          "name": "tokenId",
          "type": "uint256"
        }
      ],
      "name": "safeTransferFrom",
      "outputs": [],
      "stateMutability": "nonpayable",
      "type": "function"
    },
    {
      "inputs": [
        {
          "internalType": "address",
          "name": "from",
          "type": "address"
        },
        {
          "internalType": "address",
          "name": "to",
          "type": "address"
        },
        {
          "internalType": "uint256",
          "name": "tokenId",
          "type": "uint256"
        },
        {
          "internalType": "bytes",
          "name": "data",
          "type": "bytes"
        }
      ],
      "name": "safeTransferFrom",
      "outputs": [],
      "stateMutability": "nonpayable",
      "type": "function"
    },
    {
      "inputs": [
        {
          "internalType": "address",
          "name": "operator",
          "type": "address"
        },
        {
          "internalType": "bool",
          "name": "approved",
          "type": "bool"
        }
      ],
      "name": "setApprovalForAll",
      "outputs": [],
      "stateMutability": "nonpayable",
      "type": "function"
    },
    {
      "inputs": [
        {
          "internalType": "bytes4",
          "name": "interfaceId",
          "type": "bytes4"
        }
      ],
      "name": "supportsInterface",
      "outputs": [
        {
          "internalType": "bool",
          "name": "",
          "type": "bool"
        }
      ],
      "stateMutability": "view",
      "type": "function",
      "constant": true
    },
    {
      "inputs": [],
      "name": "symbol",
      "outputs": [
        {
          "internalType": "string",
          "name": "",
          "type": "string"
        }
      ],
      "stateMutability": "view",
      "type": "function",
      "constant": true
    },
    {
      "inputs": [
        {
          "internalType": "uint256",
          "name": "tokenId",
          "type": "uint256"
        }
      ],
      "name": "tokenURI",
      "outputs": [
        {
          "internalType": "string",
          "name": "",
          "type": "string"
        }
      ],
      "stateMutability": "view",
      "type": "function",
      "constant": true
    },
    {
      "inputs": [
        {
          "internalType": "address",
          "name": "from",
          "type": "address"
        },
        {
          "internalType": "address",
          "name": "to",
          "type": "address"
        },
        {
          "internalType": "uint256",
          "name": "tokenId",
          "type": "uint256"
        }
      ],
      "name": "transferFrom",
      "outputs": [],
      "stateMutability": "nonpayable",
      "type": "function"
    },
    {
      "inputs": [
        {
          "internalType": "string",
          "name": "name",
          "type": "string"
        },
        {
          "internalType": "string",
          "name": "description",
          "type": "string"
        },
        {
          "internalType": "string",
          "name": "png",
          "type": "string"
        }
      ],
      "name": "createToken",
      "outputs": [
        {
          "internalType": "uint256",
          "name": "",
          "type": "uint256"
        }
      ],
      "stateMutability": "nonpayable",
      "type": "function"
    },
    {
      "inputs": [],
      "name": "getMyTokens",
      "outputs": [
        {
          "internalType": "string[]",
          "name": "",
          "type": "string[]"
        },
        {
          "internalType": "uint256[]",
          "name": "",
          "type": "uint256[]"
        }
      ],
      "stateMutability": "view",
      "type": "function",
      "constant": true
    },
    {
      "inputs": [
        {
          "internalType": "string",
          "name": "png",
          "type": "string"
        }
      ],
      "name": "pngToImageURI",
      "outputs": [
        {
          "internalType": "string",
          "name": "",
          "type": "string"
        }
      ],
      "stateMutability": "pure",
      "type": "function",
      "constant": true
    },
    {
      "inputs": [
        {
          "internalType": "string",
          "name": "name",
          "type": "string"
        },
        {
          "internalType": "string",
          "name": "description",
          "type": "string"
        },
        {
          "internalType": "string",
          "name": "png",
          "type": "string"
        }
      ],
      "name": "createTokenURI",
      "outputs": [
        {
          "internalType": "string",
          "name": "",
          "type": "string"
        }
      ],
      "stateMutability": "pure",
      "type": "function",
      "constant": true
    }
  ],
  "bytecode": "0x60806040523480156200001157600080fd5b506040518060400160405280600781526020017f506f6b654e4654000000000000000000000000000000000000000000000000008152506040518060400160405280600481526020017f504e46540000000000000000000000000000000000000000000000000000000081525081600090816200008f919062000324565b508060019081620000a1919062000324565b5050506200040b565b600081519050919050565b7f4e487b7100000000000000000000000000000000000000000000000000000000600052604160045260246000fd5b7f4e487b7100000000000000000000000000000000000000000000000000000000600052602260045260246000fd5b600060028204905060018216806200012c57607f821691505b602082108103620001425762000141620000e4565b5b50919050565b60008190508160005260206000209050919050565b60006020601f8301049050919050565b600082821b905092915050565b600060088302620001ac7fffffffffffffffffffffffffffffffffffffffffffffffffffffffffffffffff826200016d565b620001b886836200016d565b95508019841693508086168417925050509392505050565b6000819050919050565b6000819050919050565b600062000205620001ff620001f984620001d0565b620001da565b620001d0565b9050919050565b6000819050919050565b6200022183620001e4565b6200023962000230826200020c565b8484546200017a565b825550505050565b600090565b6200025062000241565b6200025d81848462000216565b505050565b5b8181101562000285576200027960008262000246565b60018101905062000263565b5050565b601f821115620002d4576200029e8162000148565b620002a9846200015d565b81016020851015620002b9578190505b620002d1620002c8856200015d565b83018262000262565b50505b505050565b600082821c905092915050565b6000620002f960001984600802620002d9565b1980831691505092915050565b6000620003148383620002e6565b9150826002028217905092915050565b6200032f82620000aa565b67ffffffffffffffff8111156200034b576200034a620000b5565b5b62000357825462000113565b6200036482828562000289565b600060209050601f8311600181146200039c576000841562000387578287015190505b62000393858262000306565b86555062000403565b601f198416620003ac8662000148565b60005b82811015620003d657848901518255600182019150602085019450602081019050620003af565b86831015620003f65784890151620003f2601f891682620002e6565b8355505b6001600288020188555050505b505050505050565b61392b806200041b6000396000f3fe608060405234801561001057600080fd5b506004361061010b5760003560e01c80635b3b136a116100a257806395d89b411161007157806395d89b41146102f1578063a22cb4651461030f578063b88d4fde1461032b578063c87b56dd14610347578063e985e9c5146103775761010b565b80635b3b136a146102425780636352211e1461026157806370a082311461029157806394aed7d0146102c15761010b565b806323b872dd116100de57806323b872dd146101aa5780632eca2501146101c65780633dd4853d146101f657806342842e0e146102265761010b565b806301ffc9a71461011057806306fdde0314610140578063081812fc1461015e578063095ea7b31461018e575b600080fd5b61012a60048036038101906101259190612058565b6103a7565b60405161013791906120a0565b60405180910390f35b610148610408565b604051610155919061214b565b60405180910390f35b610178600480360381019061017391906121a3565b61049a565b6040516101859190612211565b60405180910390f35b6101a860048036038101906101a39190612258565b6104e0565b005b6101c460048036038101906101bf9190612298565b6105f7565b005b6101e060048036038101906101db9190612420565b610657565b6040516101ed919061214b565b60405180910390f35b610210600480360381019061020b91906124c7565b6106ea565b60405161021d919061214b565b60405180910390f35b610240600480360381019061023b9190612298565b610783565b005b61024a6107a3565b6040516102589291906126da565b60405180910390f35b61027b600480360381019061027691906121a3565b610a23565b6040516102889190612211565b60405180910390f35b6102ab60048036038101906102a69190612711565b610aa9565b6040516102b8919061274d565b60405180910390f35b6102db60048036038101906102d69190612420565b610b60565b6040516102e8919061274d565b60405180910390f35b6102f9610be4565b604051610306919061214b565b60405180910390f35b61032960048036038101906103249190612794565b610c76565b005b61034560048036038101906103409190612875565b610c8c565b005b610361600480360381019061035c91906121a3565b610cee565b60405161036e919061214b565b60405180910390f35b610391600480360381019061038c91906128f8565b610e00565b60405161039e91906120a0565b60405180910390f35b6000634906490660e01b7bffffffffffffffffffffffffffffffffffffffffffffffffffffffff1916827bffffffffffffffffffffffffffffffffffffffffffffffffffffffff19161480610401575061040082610e94565b5b9050919050565b60606000805461041790612967565b80601f016020809104026020016040519081016040528092919081815260200182805461044390612967565b80156104905780601f1061046557610100808354040283529160200191610490565b820191906000526020600020905b81548152906001019060200180831161047357829003601f168201915b5050505050905090565b60006104a582610f76565b6004600083815260200190815260200160002060009054906101000a900473ffffffffffffffffffffffffffffffffffffffff169050919050565b60006104eb82610a23565b90508073ffffffffffffffffffffffffffffffffffffffff168373ffffffffffffffffffffffffffffffffffffffff160361055b576040517f08c379a000000000000000000000000000000000000000000000000000000000815260040161055290612a0a565b60405180910390fd5b8073ffffffffffffffffffffffffffffffffffffffff1661057a610fc1565b73ffffffffffffffffffffffffffffffffffffffff1614806105a957506105a8816105a3610fc1565b610e00565b5b6105e8576040517f08c379a00000000000000000000000000000000000000000000000000000000081526004016105df90612a9c565b60405180910390fd5b6105f28383610fc9565b505050565b610608610602610fc1565b82611082565b610647576040517f08c379a000000000000000000000000000000000000000000000000000000000815260040161063e90612b2e565b60405180910390fd5b610652838383611117565b505050565b606060006040518060400160405280601d81526020017f646174613a6170706c69636174696f6e2f6a736f6e3b6261736536342c0000008152509050806106c08686866040516020016106ac93929190612d52565b604051602081830303815290604052611410565b6040516020016106d1929190612dd0565b6040516020818303038152906040529150509392505050565b606060006040518060400160405280601681526020017f646174613a696d6167652f706e673b6261736536342c00000000000000000000815250905060006107508460405160200161073c9190612df4565b604051602081830303815290604052611410565b905060008282604051602001610767929190612dd0565b6040516020818303038152906040529050809350505050919050565b61079e83838360405180602001604052806000815250610c8c565b505050565b60608060006107b26007611588565b9050600081116107f7576040517f08c379a00000000000000000000000000000000000000000000000000000000081526004016107ee90612e57565b60405180910390fd5b600080600190505b60018361080c9190612ea6565b811015610870573373ffffffffffffffffffffffffffffffffffffffff1661083382610a23565b73ffffffffffffffffffffffffffffffffffffffff160361085d57818061085990612eda565b9250505b808061086890612eda565b9150506107ff565b50600081116108b4576040517f08c379a00000000000000000000000000000000000000000000000000000000081526004016108ab90612f94565b60405180910390fd5b6000808267ffffffffffffffff8111156108d1576108d06122f5565b5b6040519080825280602002602001820160405280156108ff5781602001602082028036833780820191505090505b50905060008367ffffffffffffffff81111561091e5761091d6122f5565b5b60405190808252806020026020018201604052801561095157816020015b606081526020019060019003908161093c5790505b5090506000600190505b6001866109689190612ea6565b811015610a13573373ffffffffffffffffffffffffffffffffffffffff1661098f82610a23565b73ffffffffffffffffffffffffffffffffffffffff1603610a00576109b381610cee565b8285815181106109c6576109c5612fb4565b5b6020026020010181905250808385815181106109e5576109e4612fb4565b5b60200260200101818152505083806109fc90612eda565b9450505b8080610a0b90612eda565b91505061095b565b5080829650965050505050509091565b600080610a2f83611596565b9050600073ffffffffffffffffffffffffffffffffffffffff168173ffffffffffffffffffffffffffffffffffffffff1603610aa0576040517f08c379a0000000000000000000000000000000000000000000000000000000008152600401610a979061302f565b60405180910390fd5b80915050919050565b60008073ffffffffffffffffffffffffffffffffffffffff168273ffffffffffffffffffffffffffffffffffffffff1603610b19576040517f08c379a0000000000000000000000000000000000000000000000000000000008152600401610b10906130c1565b60405180910390fd5b600360008373ffffffffffffffffffffffffffffffffffffffff1673ffffffffffffffffffffffffffffffffffffffff168152602001908152602001600020549050919050565b6000610b6c60076115d3565b6000610b786007611588565b9050610b8433826115e9565b6000610b91868686610657565b9050610b9d8282611607565b7f35d0b9713cc4b54bb91a9bfa420b091d37c592d49a7468dafe20b4cfbdfca02a848284604051610bd0939291906130e1565b60405180910390a181925050509392505050565b606060018054610bf390612967565b80601f0160208091040260200160405190810160405280929190818152602001828054610c1f90612967565b8015610c6c5780601f10610c4157610100808354040283529160200191610c6c565b820191906000526020600020905b815481529060010190602001808311610c4f57829003601f168201915b5050505050905090565b610c88610c81610fc1565b83836116ab565b5050565b610c9d610c97610fc1565b83611082565b610cdc576040517f08c379a0000000000000000000000000000000000000000000000000000000008152600401610cd390612b2e565b60405180910390fd5b610ce884848484611817565b50505050565b6060610cf982610f76565b6000600660008481526020019081526020016000208054610d1990612967565b80601f0160208091040260200160405190810160405280929190818152602001828054610d4590612967565b8015610d925780601f10610d6757610100808354040283529160200191610d92565b820191906000526020600020905b815481529060010190602001808311610d7557829003601f168201915b505050505090506000610da3611873565b90506000815103610db8578192505050610dfb565b600082511115610ded578082604051602001610dd5929190612dd0565b60405160208183030381529060405292505050610dfb565b610df68461188a565b925050505b919050565b6000600560008473ffffffffffffffffffffffffffffffffffffffff1673ffffffffffffffffffffffffffffffffffffffff16815260200190815260200160002060008373ffffffffffffffffffffffffffffffffffffffff1673ffffffffffffffffffffffffffffffffffffffff16815260200190815260200160002060009054906101000a900460ff16905092915050565b60007f80ac58cd000000000000000000000000000000000000000000000000000000007bffffffffffffffffffffffffffffffffffffffffffffffffffffffff1916827bffffffffffffffffffffffffffffffffffffffffffffffffffffffff19161480610f5f57507f5b5e139f000000000000000000000000000000000000000000000000000000007bffffffffffffffffffffffffffffffffffffffffffffffffffffffff1916827bffffffffffffffffffffffffffffffffffffffffffffffffffffffff1916145b80610f6f5750610f6e826118f2565b5b9050919050565b610f7f8161195c565b610fbe576040517f08c379a0000000000000000000000000000000000000000000000000000000008152600401610fb59061302f565b60405180910390fd5b50565b600033905090565b816004600083815260200190815260200160002060006101000a81548173ffffffffffffffffffffffffffffffffffffffff021916908373ffffffffffffffffffffffffffffffffffffffff160217905550808273ffffffffffffffffffffffffffffffffffffffff1661103c83610a23565b73ffffffffffffffffffffffffffffffffffffffff167f8c5be1e5ebec7d5bd14f71427d1e84f3dd0314c0f7b2291e5b200ac8c7c3b92560405160405180910390a45050565b60008061108e83610a23565b90508073ffffffffffffffffffffffffffffffffffffffff168473ffffffffffffffffffffffffffffffffffffffff1614806110d057506110cf8185610e00565b5b8061110e57508373ffffffffffffffffffffffffffffffffffffffff166110f68461049a565b73ffffffffffffffffffffffffffffffffffffffff16145b91505092915050565b8273ffffffffffffffffffffffffffffffffffffffff1661113782610a23565b73ffffffffffffffffffffffffffffffffffffffff161461118d576040517f08c379a000000000000000000000000000000000000000000000000000000000815260040161118490613198565b60405180910390fd5b600073ffffffffffffffffffffffffffffffffffffffff168273ffffffffffffffffffffffffffffffffffffffff16036111fc576040517f08c379a00000000000000000000000000000000000000000000000000000000081526004016111f39061322a565b60405180910390fd5b611209838383600161199d565b8273ffffffffffffffffffffffffffffffffffffffff1661122982610a23565b73ffffffffffffffffffffffffffffffffffffffff161461127f576040517f08c379a000000000000000000000000000000000000000000000000000000000815260040161127690613198565b60405180910390fd5b6004600082815260200190815260200160002060006101000a81549073ffffffffffffffffffffffffffffffffffffffff02191690556001600360008573ffffffffffffffffffffffffffffffffffffffff1673ffffffffffffffffffffffffffffffffffffffff168152602001908152602001600020600082825403925050819055506001600360008473ffffffffffffffffffffffffffffffffffffffff1673ffffffffffffffffffffffffffffffffffffffff16815260200190815260200160002060008282540192505081905550816002600083815260200190815260200160002060006101000a81548173ffffffffffffffffffffffffffffffffffffffff021916908373ffffffffffffffffffffffffffffffffffffffff160217905550808273ffffffffffffffffffffffffffffffffffffffff168473ffffffffffffffffffffffffffffffffffffffff167fddf252ad1be2c89b69c2b068fc378daa952ba7f163c4a11628f55a4df523b3ef60405160405180910390a461140b83838360016119a3565b505050565b6060600082510361143257604051806020016040528060008152509050611583565b60006040518060600160405280604081526020016138b660409139905060006003600285516114619190612ea6565b61146b9190613279565b600461147791906132aa565b905060006020826114889190612ea6565b67ffffffffffffffff8111156114a1576114a06122f5565b5b6040519080825280601f01601f1916602001820160405280156114d35781602001600182028036833780820191505090505b509050818152600183018586518101602084015b81831015611542576003830192508251603f8160121c168501518253600182019150603f81600c1c168501518253600182019150603f8160061c168501518253600182019150603f81168501518253600182019150506114e7565b60038951066001811461155c576002811461156c57611577565b613d3d60f01b6002830352611577565b603d60f81b60018303525b50505050508093505050505b919050565b600081600001549050919050565b60006002600083815260200190815260200160002060009054906101000a900473ffffffffffffffffffffffffffffffffffffffff169050919050565b6001816000016000828254019250508190555050565b6116038282604051806020016040528060008152506119a9565b5050565b6116108261195c565b61164f576040517f08c379a00000000000000000000000000000000000000000000000000000000081526004016116469061335e565b60405180910390fd5b8060066000848152602001908152602001600020908161166f919061352a565b507ff8e1a15aba9398e019f0b49df1a4fde98ee17ae345cb5f6b5e2c27f5033e8ce78260405161169f919061274d565b60405180910390a15050565b8173ffffffffffffffffffffffffffffffffffffffff168373ffffffffffffffffffffffffffffffffffffffff1603611719576040517f08c379a000000000000000000000000000000000000000000000000000000000815260040161171090613648565b60405180910390fd5b80600560008573ffffffffffffffffffffffffffffffffffffffff1673ffffffffffffffffffffffffffffffffffffffff16815260200190815260200160002060008473ffffffffffffffffffffffffffffffffffffffff1673ffffffffffffffffffffffffffffffffffffffff16815260200190815260200160002060006101000a81548160ff0219169083151502179055508173ffffffffffffffffffffffffffffffffffffffff168373ffffffffffffffffffffffffffffffffffffffff167f17307eab39ab6107e8899845ad3d59bd9653f200f220920489ca2b5937696c318360405161180a91906120a0565b60405180910390a3505050565b611822848484611117565b61182e84848484611a04565b61186d576040517f08c379a0000000000000000000000000000000000000000000000000000000008152600401611864906136da565b60405180910390fd5b50505050565b606060405180602001604052806000815250905090565b606061189582610f76565b600061189f611873565b905060008151116118bf57604051806020016040528060008152506118ea565b806118c984611b8b565b6040516020016118da929190612dd0565b6040516020818303038152906040525b915050919050565b60007f01ffc9a7000000000000000000000000000000000000000000000000000000007bffffffffffffffffffffffffffffffffffffffffffffffffffffffff1916827bffffffffffffffffffffffffffffffffffffffffffffffffffffffff1916149050919050565b60008073ffffffffffffffffffffffffffffffffffffffff1661197e83611596565b73ffffffffffffffffffffffffffffffffffffffff1614159050919050565b50505050565b50505050565b6119b38383611c59565b6119c06000848484611a04565b6119ff576040517f08c379a00000000000000000000000000000000000000000000000000000000081526004016119f6906136da565b60405180910390fd5b505050565b6000611a258473ffffffffffffffffffffffffffffffffffffffff16611e76565b15611b7e578373ffffffffffffffffffffffffffffffffffffffff1663150b7a02611a4e610fc1565b8786866040518563ffffffff1660e01b8152600401611a70949392919061374f565b6020604051808303816000875af1925050508015611aac57506040513d601f19601f82011682018060405250810190611aa991906137b0565b60015b611b2e573d8060008114611adc576040519150601f19603f3d011682016040523d82523d6000602084013e611ae1565b606091505b506000815103611b26576040517f08c379a0000000000000000000000000000000000000000000000000000000008152600401611b1d906136da565b60405180910390fd5b805181602001fd5b63150b7a0260e01b7bffffffffffffffffffffffffffffffffffffffffffffffffffffffff1916817bffffffffffffffffffffffffffffffffffffffffffffffffffffffff191614915050611b83565b600190505b949350505050565b606060006001611b9a84611e99565b01905060008167ffffffffffffffff811115611bb957611bb86122f5565b5b6040519080825280601f01601f191660200182016040528015611beb5781602001600182028036833780820191505090505b509050600082602001820190505b600115611c4e578080600190039150507f3031323334353637383961626364656600000000000000000000000000000000600a86061a8153600a8581611c4257611c4161324a565b5b04945060008503611bf9575b819350505050919050565b600073ffffffffffffffffffffffffffffffffffffffff168273ffffffffffffffffffffffffffffffffffffffff1603611cc8576040517f08c379a0000000000000000000000000000000000000000000000000000000008152600401611cbf90613829565b60405180910390fd5b611cd18161195c565b15611d11576040517f08c379a0000000000000000000000000000000000000000000000000000000008152600401611d0890613895565b60405180910390fd5b611d1f60008383600161199d565b611d288161195c565b15611d68576040517f08c379a0000000000000000000000000000000000000000000000000000000008152600401611d5f90613895565b60405180910390fd5b6001600360008473ffffffffffffffffffffffffffffffffffffffff1673ffffffffffffffffffffffffffffffffffffffff16815260200190815260200160002060008282540192505081905550816002600083815260200190815260200160002060006101000a81548173ffffffffffffffffffffffffffffffffffffffff021916908373ffffffffffffffffffffffffffffffffffffffff160217905550808273ffffffffffffffffffffffffffffffffffffffff16600073ffffffffffffffffffffffffffffffffffffffff167fddf252ad1be2c89b69c2b068fc378daa952ba7f163c4a11628f55a4df523b3ef60405160405180910390a4611e726000838360016119a3565b5050565b6000808273ffffffffffffffffffffffffffffffffffffffff163b119050919050565b600080600090507a184f03e93ff9f4daa797ed6e38ed64bf6a1f0100000000000000008310611ef7577a184f03e93ff9f4daa797ed6e38ed64bf6a1f0100000000000000008381611eed57611eec61324a565b5b0492506040810190505b6d04ee2d6d415b85acef81000000008310611f34576d04ee2d6d415b85acef81000000008381611f2a57611f2961324a565b5b0492506020810190505b662386f26fc100008310611f6357662386f26fc100008381611f5957611f5861324a565b5b0492506010810190505b6305f5e1008310611f8c576305f5e1008381611f8257611f8161324a565b5b0492506008810190505b6127108310611fb1576127108381611fa757611fa661324a565b5b0492506004810190505b60648310611fd45760648381611fca57611fc961324a565b5b0492506002810190505b600a8310611fe3576001810190505b80915050919050565b6000604051905090565b600080fd5b600080fd5b60007fffffffff0000000000000000000000000000000000000000000000000000000082169050919050565b61203581612000565b811461204057600080fd5b50565b6000813590506120528161202c565b92915050565b60006020828403121561206e5761206d611ff6565b5b600061207c84828501612043565b91505092915050565b60008115159050919050565b61209a81612085565b82525050565b60006020820190506120b56000830184612091565b92915050565b600081519050919050565b600082825260208201905092915050565b60005b838110156120f55780820151818401526020810190506120da565b60008484015250505050565b6000601f19601f8301169050919050565b600061211d826120bb565b61212781856120c6565b93506121378185602086016120d7565b61214081612101565b840191505092915050565b600060208201905081810360008301526121658184612112565b905092915050565b6000819050919050565b6121808161216d565b811461218b57600080fd5b50565b60008135905061219d81612177565b92915050565b6000602082840312156121b9576121b8611ff6565b5b60006121c78482850161218e565b91505092915050565b600073ffffffffffffffffffffffffffffffffffffffff82169050919050565b60006121fb826121d0565b9050919050565b61220b816121f0565b82525050565b60006020820190506122266000830184612202565b92915050565b612235816121f0565b811461224057600080fd5b50565b6000813590506122528161222c565b92915050565b6000806040838503121561226f5761226e611ff6565b5b600061227d85828601612243565b925050602061228e8582860161218e565b9150509250929050565b6000806000606084860312156122b1576122b0611ff6565b5b60006122bf86828701612243565b93505060206122d086828701612243565b92505060406122e18682870161218e565b9150509250925092565b600080fd5b600080fd5b7f4e487b7100000000000000000000000000000000000000000000000000000000600052604160045260246000fd5b61232d82612101565b810181811067ffffffffffffffff8211171561234c5761234b6122f5565b5b80604052505050565b600061235f611fec565b905061236b8282612324565b919050565b600067ffffffffffffffff82111561238b5761238a6122f5565b5b61239482612101565b9050602081019050919050565b82818337600083830152505050565b60006123c36123be84612370565b612355565b9050828152602081018484840111156123df576123de6122f0565b5b6123ea8482856123a1565b509392505050565b600082601f830112612407576124066122eb565b5b81356124178482602086016123b0565b91505092915050565b60008060006060848603121561243957612438611ff6565b5b600084013567ffffffffffffffff81111561245757612456611ffb565b5b612463868287016123f2565b935050602084013567ffffffffffffffff81111561248457612483611ffb565b5b612490868287016123f2565b925050604084013567ffffffffffffffff8111156124b1576124b0611ffb565b5b6124bd868287016123f2565b9150509250925092565b6000602082840312156124dd576124dc611ff6565b5b600082013567ffffffffffffffff8111156124fb576124fa611ffb565b5b612507848285016123f2565b91505092915050565b600081519050919050565b600082825260208201905092915050565b6000819050602082019050919050565b600082825260208201905092915050565b6000612558826120bb565b612562818561253c565b93506125728185602086016120d7565b61257b81612101565b840191505092915050565b6000612592838361254d565b905092915050565b6000602082019050919050565b60006125b282612510565b6125bc818561251b565b9350836020820285016125ce8561252c565b8060005b8581101561260a57848403895281516125eb8582612586565b94506125f68361259a565b925060208a019950506001810190506125d2565b50829750879550505050505092915050565b600081519050919050565b600082825260208201905092915050565b6000819050602082019050919050565b6126518161216d565b82525050565b60006126638383612648565b60208301905092915050565b6000602082019050919050565b60006126878261261c565b6126918185612627565b935061269c83612638565b8060005b838110156126cd5781516126b48882612657565b97506126bf8361266f565b9250506001810190506126a0565b5085935050505092915050565b600060408201905081810360008301526126f481856125a7565b90508181036020830152612708818461267c565b90509392505050565b60006020828403121561272757612726611ff6565b5b600061273584828501612243565b91505092915050565b6127478161216d565b82525050565b6000602082019050612762600083018461273e565b92915050565b61277181612085565b811461277c57600080fd5b50565b60008135905061278e81612768565b92915050565b600080604083850312156127ab576127aa611ff6565b5b60006127b985828601612243565b92505060206127ca8582860161277f565b9150509250929050565b600067ffffffffffffffff8211156127ef576127ee6122f5565b5b6127f882612101565b9050602081019050919050565b6000612818612813846127d4565b612355565b905082815260208101848484011115612834576128336122f0565b5b61283f8482856123a1565b509392505050565b600082601f83011261285c5761285b6122eb565b5b813561286c848260208601612805565b91505092915050565b6000806000806080858703121561288f5761288e611ff6565b5b600061289d87828801612243565b94505060206128ae87828801612243565b93505060406128bf8782880161218e565b925050606085013567ffffffffffffffff8111156128e0576128df611ffb565b5b6128ec87828801612847565b91505092959194509250565b6000806040838503121561290f5761290e611ff6565b5b600061291d85828601612243565b925050602061292e85828601612243565b9150509250929050565b7f4e487b7100000000000000000000000000000000000000000000000000000000600052602260045260246000fd5b6000600282049050600182168061297f57607f821691505b60208210810361299257612991612938565b5b50919050565b7f4552433732313a20617070726f76616c20746f2063757272656e74206f776e6560008201527f7200000000000000000000000000000000000000000000000000000000000000602082015250565b60006129f46021836120c6565b91506129ff82612998565b604082019050919050565b60006020820190508181036000830152612a23816129e7565b9050919050565b7f4552433732313a20617070726f76652063616c6c6572206973206e6f7420746f60008201527f6b656e206f776e6572206f7220617070726f76656420666f7220616c6c000000602082015250565b6000612a86603d836120c6565b9150612a9182612a2a565b604082019050919050565b60006020820190508181036000830152612ab581612a79565b9050919050565b7f4552433732313a2063616c6c6572206973206e6f7420746f6b656e206f776e6560008201527f72206f7220617070726f76656400000000000000000000000000000000000000602082015250565b6000612b18602d836120c6565b9150612b2382612abc565b604082019050919050565b60006020820190508181036000830152612b4781612b0b565b9050919050565b600081905092915050565b7f7b226e616d65223a202200000000000000000000000000000000000000000000600082015250565b6000612b8f600a83612b4e565b9150612b9a82612b59565b600a82019050919050565b6000612bb0826120bb565b612bba8185612b4e565b9350612bca8185602086016120d7565b80840191505092915050565b7f2200000000000000000000000000000000000000000000000000000000000000600082015250565b6000612c0c600183612b4e565b9150612c1782612bd6565b600182019050919050565b7f2c20226465736372697074696f6e223a20220000000000000000000000000000600082015250565b6000612c58601283612b4e565b9150612c6382612c22565b601282019050919050565b7f2c202261747472696275746573223a2022220000000000000000000000000000600082015250565b6000612ca4601283612b4e565b9150612caf82612c6e565b601282019050919050565b7f2c2022696d616765223a20220000000000000000000000000000000000000000600082015250565b6000612cf0600c83612b4e565b9150612cfb82612cba565b600c82019050919050565b7f22207d0000000000000000000000000000000000000000000000000000000000600082015250565b6000612d3c600383612b4e565b9150612d4782612d06565b600382019050919050565b6000612d5d82612b82565b9150612d698286612ba5565b9150612d7482612bff565b9150612d7f82612c4b565b9150612d8b8285612ba5565b9150612d9682612bff565b9150612da182612c97565b9150612dac82612ce3565b9150612db88284612ba5565b9150612dc382612d2f565b9150819050949350505050565b6000612ddc8285612ba5565b9150612de88284612ba5565b91508190509392505050565b6000612e008284612ba5565b915081905092915050565b7f546865726520617265206e6f20746f6b656e732e000000000000000000000000600082015250565b6000612e416014836120c6565b9150612e4c82612e0b565b602082019050919050565b60006020820190508181036000830152612e7081612e34565b9050919050565b7f4e487b7100000000000000000000000000000000000000000000000000000000600052601160045260246000fd5b6000612eb18261216d565b9150612ebc8361216d565b9250828201905080821115612ed457612ed3612e77565b5b92915050565b6000612ee58261216d565b91507fffffffffffffffffffffffffffffffffffffffffffffffffffffffffffffffff8203612f1757612f16612e77565b5b600182019050919050565b7f43616c6c6572206d7573742062652068617665206174206c656173742031207460008201527f6f6b656e2e000000000000000000000000000000000000000000000000000000602082015250565b6000612f7e6025836120c6565b9150612f8982612f22565b604082019050919050565b60006020820190508181036000830152612fad81612f71565b9050919050565b7f4e487b7100000000000000000000000000000000000000000000000000000000600052603260045260246000fd5b7f4552433732313a20696e76616c696420746f6b656e2049440000000000000000600082015250565b60006130196018836120c6565b915061302482612fe3565b602082019050919050565b600060208201905081810360008301526130488161300c565b9050919050565b7f4552433732313a2061646472657373207a65726f206973206e6f74206120766160008201527f6c6964206f776e65720000000000000000000000000000000000000000000000602082015250565b60006130ab6029836120c6565b91506130b68261304f565b604082019050919050565b600060208201905081810360008301526130da8161309e565b9050919050565b600060608201905081810360008301526130fb8186612112565b9050818103602083015261310f8185612112565b905061311e604083018461273e565b949350505050565b7f4552433732313a207472616e736665722066726f6d20696e636f72726563742060008201527f6f776e6572000000000000000000000000000000000000000000000000000000602082015250565b60006131826025836120c6565b915061318d82613126565b604082019050919050565b600060208201905081810360008301526131b181613175565b9050919050565b7f4552433732313a207472616e7366657220746f20746865207a65726f2061646460008201527f7265737300000000000000000000000000000000000000000000000000000000602082015250565b60006132146024836120c6565b915061321f826131b8565b604082019050919050565b6000602082019050818103600083015261324381613207565b9050919050565b7f4e487b7100000000000000000000000000000000000000000000000000000000600052601260045260246000fd5b60006132848261216d565b915061328f8361216d565b92508261329f5761329e61324a565b5b828204905092915050565b60006132b58261216d565b91506132c08361216d565b92508282026132ce8161216d565b915082820484148315176132e5576132e4612e77565b5b5092915050565b7f45524337323155524953746f726167653a2055524920736574206f66206e6f6e60008201527f6578697374656e7420746f6b656e000000000000000000000000000000000000602082015250565b6000613348602e836120c6565b9150613353826132ec565b604082019050919050565b600060208201905081810360008301526133778161333b565b9050919050565b60008190508160005260206000209050919050565b60006020601f8301049050919050565b600082821b905092915050565b6000600883026133e07fffffffffffffffffffffffffffffffffffffffffffffffffffffffffffffffff826133a3565b6133ea86836133a3565b95508019841693508086168417925050509392505050565b6000819050919050565b600061342761342261341d8461216d565b613402565b61216d565b9050919050565b6000819050919050565b6134418361340c565b61345561344d8261342e565b8484546133b0565b825550505050565b600090565b61346a61345d565b613475818484613438565b505050565b5b818110156134995761348e600082613462565b60018101905061347b565b5050565b601f8211156134de576134af8161337e565b6134b884613393565b810160208510156134c7578190505b6134db6134d385613393565b83018261347a565b50505b505050565b600082821c905092915050565b6000613501600019846008026134e3565b1980831691505092915050565b600061351a83836134f0565b9150826002028217905092915050565b613533826120bb565b67ffffffffffffffff81111561354c5761354b6122f5565b5b6135568254612967565b61356182828561349d565b600060209050601f8311600181146135945760008415613582578287015190505b61358c858261350e565b8655506135f4565b601f1984166135a28661337e565b60005b828110156135ca578489015182556001820191506020850194506020810190506135a5565b868310156135e757848901516135e3601f8916826134f0565b8355505b6001600288020188555050505b505050505050565b7f4552433732313a20617070726f766520746f2063616c6c657200000000000000600082015250565b60006136326019836120c6565b915061363d826135fc565b602082019050919050565b6000602082019050818103600083015261366181613625565b9050919050565b7f4552433732313a207472616e7366657220746f206e6f6e20455243373231526560008201527f63656976657220696d706c656d656e7465720000000000000000000000000000602082015250565b60006136c46032836120c6565b91506136cf82613668565b604082019050919050565b600060208201905081810360008301526136f3816136b7565b9050919050565b600081519050919050565b600082825260208201905092915050565b6000613721826136fa565b61372b8185613705565b935061373b8185602086016120d7565b61374481612101565b840191505092915050565b60006080820190506137646000830187612202565b6137716020830186612202565b61377e604083018561273e565b81810360608301526137908184613716565b905095945050505050565b6000815190506137aa8161202c565b92915050565b6000602082840312156137c6576137c5611ff6565b5b60006137d48482850161379b565b91505092915050565b7f4552433732313a206d696e7420746f20746865207a65726f2061646472657373600082015250565b60006138136020836120c6565b915061381e826137dd565b602082019050919050565b6000602082019050818103600083015261384281613806565b9050919050565b7f4552433732313a20746f6b656e20616c7265616479206d696e74656400000000600082015250565b600061387f601c836120c6565b915061388a82613849565b602082019050919050565b600060208201905081810360008301526138ae81613872565b905091905056fe4142434445464748494a4b4c4d4e4f505152535455565758595a6162636465666768696a6b6c6d6e6f707172737475767778797a303132333435363738392b2fa2646970667358221220fd78a900a98d64406e471cc4d8ddee19680efe140070f1c713a83e8d06c6da3764736f6c63430008130033",
  "immutableReferences": {},
  "source": "// SPDX-License-Identifier: MIT\r\npragma solidity ^0.8.4;\r\n\r\nimport \"@openzeppelin/contracts/token/ERC721/extensions/ERC721URIStorage.sol\";\r\nimport \"@openzeppelin/contracts/utils/Counters.sol\";\r\nimport \"base64-sol/base64.sol\";\r\n\r\n//Viene definito un contratto che eredit le funzionalit di ERC721URIStorage, ovvero il contratto\r\n//potr gestire URI associati ai token.\r\ncontract PokeNFT is ERC721URIStorage {\r\n    //Il contratto utilizzer un contatore per identificate univocamente i token creati.\r\n    using Counters for Counters.Counter;\r\n    Counters.Counter private _tokenIds;\r\n    //evento emesso ogni volta che viene creato un nuovo token.\r\n    event TokenCreated(string png, string tokenURI, uint256 tokenId);\r\n\r\n    constructor() ERC721(\"PokeNFT\", \"PNFT\") { }\r\n    //Funzione che crea il token, passando i parametri nome, descrizione e un immagine png.\r\n    function createToken(string memory name, string memory description, \r\n            string memory png) public returns (uint256) {\r\n        //viene incrementato l'ID del token, appena viene chiamata la funzione\r\n        //e viene passato l'ID corrente a tokenId.\r\n        _tokenIds.increment();\r\n        uint256 tokenId = _tokenIds.current();\r\n        //_safeMint crea l'nft passando l'ID del token al proprietario che chiama la funzione.\r\n        _safeMint(msg.sender, tokenId);\r\n        //viene creato l'URI del token e questo poi viene associato all'ID del token.\r\n        string memory tokenURI = createTokenURI(name, description, png);\r\n        _setTokenURI(tokenId, tokenURI);\r\n        //viene emesso l'evento passando l'immagine, l'URI del token e l'ID del token.\r\n        emit TokenCreated(png, tokenURI, tokenId);\r\n        //viene restituito l'ID del token.\r\n        return tokenId;\r\n    \r\n    }\r\n    //Funzione che prende i tokens del proprietario che chiama tale funzione.\r\n    function getMyTokens() public view returns (string[] memory, uint256[] memory) {\r\n        //viene passato l'ID corrente a totalTokenCount che servir come contatore,\r\n        //e viene effettuato un controllo, se il contatore  maggiore di zero.\r\n        uint256 totalTokenCount = _tokenIds.current();\r\n        require(totalTokenCount > 0, \"There are no tokens.\");\r\n\r\n        uint256 myTotalTokenCount = 0;\r\n        //iterazione da 1 a totale di tokens esistenti e se l'ID del token\r\n        //appartiene al proprietario che chiama la funzione, viene\r\n        //incrementato la variabile che conta solo i token di tale proprietario\r\n        for (uint256 i = 1; i < totalTokenCount + 1; i++) {            \r\n            // Controllo se corrisponde il proprietario del token\r\n            if (super.ownerOf(i) == msg.sender)\r\n                myTotalTokenCount++;\r\n        }\r\n        //controllo se i token del proprietario sono maggiori di zero.\r\n        require(myTotalTokenCount > 0, \"Caller must be have at least 1 token.\");\r\n\r\n        //creo due array ids, myTokens, con grandezza della variabile che conta i token del proprietario.\r\n        uint256 currentIndex = 0;\r\n        uint256[] memory ids = new uint256[](myTotalTokenCount);\r\n        string[] memory myTokens = new string[](myTotalTokenCount);\r\n        //iterazione per assegnare agli array, i tokenURI del proprietario e gli ID dei token\r\n        //(FORSE SI PUO CAMBIARE)  giusta cosi perch altrimenti riassegno gli stessi ID a diversi token e non va bene.\r\n        for (uint256 i = 1; i < totalTokenCount + 1; i++) {\r\n            // Controllo se corrisponde il proprietario del token\r\n            if (super.ownerOf(i) == msg.sender) {\r\n                // Lo aggiungo nell'array e incremento\r\n                myTokens[currentIndex] = super.tokenURI(i);\r\n                ids[currentIndex] = i;\r\n                currentIndex++; \r\n            }\r\n        }\r\n        // restituisce i due array myTokens, che contiene gli URI dei token del proprierario, e\r\n        // ids, che contiene gli ID dei token del proprietario.\r\n        return (myTokens, ids);\r\n\r\n    }\r\n\r\n    // Funzione che serve solo per il testing \r\n    // Funzione che restituisce l'URI dell'immagine passata come parametro.\r\n    // Format: data:image/png;base64,(Base64-encoding)\r\n    function pngToImageURI(string memory png) public pure returns (string memory) {\r\n\r\n        string memory base = \"data:image/png;base64,\";\r\n        string memory base64encoded = Base64.encode(\r\n            bytes(string(abi.encodePacked(png))));\r\n        string memory imageURI = string(abi.encodePacked(base, base64encoded));\r\n        return imageURI;\r\n    \r\n    }\r\n    //Funzione che crea l'URI del token, passando i paramentri nome, descrizione e immagine png\r\n    //(Cambiare imageURI con png)\r\n    function createTokenURI(string memory name, string memory description, \r\n            string memory png) public pure returns (string memory) {\r\n        //viene restituito quindi una stringa con una base e un JSON codificato in base64, avente come campi il nome, la descrizione e l'immagine png.\r\n        string memory base = \"data:application/json;base64,\";\r\n        return string(abi.encodePacked(\r\n            base,\r\n            Base64.encode(\r\n                bytes(abi.encodePacked(\r\n                    '{\"name\": \"', name, '\"', \r\n                    ', \"description\": \"', description, '\"', \r\n                    ', \"attributes\": \"\"',\r\n                    ', \"image\": \"', png, '\" }'))\r\n            )\r\n        ));\r\n   \r\n    }\r\n\r\n}",
  "sourcePath": "C:\\Users\\vince\\Desktop\\Magistrale\\Sicurezza Di Dati\\PokeNFTVerse\\contracts\\PokeNFT.sol",
  "compiler": {
    "name": "solc",
    "version": "0.8.19+commit.7dd6d404.Emscripten.clang"
  },
  "schemaVersion": "3.4.13",
  "updatedAt": "2023-11-12T19:21:54.227Z",
  "networkType": "ethereum",
  "devdoc": {
    "events": {
      "Approval(address,address,uint256)": {
        "details": "Emitted when `owner` enables `approved` to manage the `tokenId` token."
      },
      "ApprovalForAll(address,address,bool)": {
        "details": "Emitted when `owner` enables or disables (`approved`) `operator` to manage all of its assets."
      },
      "BatchMetadataUpdate(uint256,uint256)": {
        "details": "This event emits when the metadata of a range of tokens is changed. So that the third-party platforms such as NFT market could timely update the images and related attributes of the NFTs."
      },
      "MetadataUpdate(uint256)": {
        "details": "This event emits when the metadata of a token is changed. So that the third-party platforms such as NFT market could timely update the images and related attributes of the NFT."
      },
      "Transfer(address,address,uint256)": {
        "details": "Emitted when `tokenId` token is transferred from `from` to `to`."
      }
    },
    "kind": "dev",
    "methods": {
      "approve(address,uint256)": {
        "details": "See {IERC721-approve}."
      },
      "balanceOf(address)": {
        "details": "See {IERC721-balanceOf}."
      },
      "getApproved(uint256)": {
        "details": "See {IERC721-getApproved}."
      },
      "isApprovedForAll(address,address)": {
        "details": "See {IERC721-isApprovedForAll}."
      },
      "name()": {
        "details": "See {IERC721Metadata-name}."
      },
      "ownerOf(uint256)": {
        "details": "See {IERC721-ownerOf}."
      },
      "safeTransferFrom(address,address,uint256)": {
        "details": "See {IERC721-safeTransferFrom}."
      },
      "safeTransferFrom(address,address,uint256,bytes)": {
        "details": "See {IERC721-safeTransferFrom}."
      },
      "setApprovalForAll(address,bool)": {
        "details": "See {IERC721-setApprovalForAll}."
      },
      "supportsInterface(bytes4)": {
        "details": "See {IERC165-supportsInterface}"
      },
      "symbol()": {
        "details": "See {IERC721Metadata-symbol}."
      },
      "tokenURI(uint256)": {
        "details": "See {IERC721Metadata-tokenURI}."
      },
      "transferFrom(address,address,uint256)": {
        "details": "See {IERC721-transferFrom}."
      }
    },
    "version": 1
  },
  "userdoc": {
    "kind": "user",
    "methods": {},
    "version": 1
  }
}